:020000040800F2
:100000000050002041520008DDAF0008ADB00008EC
:1000100000000000000000000000000000000000E0
:10002000000000000000000000000000B3B0000865
:100030000000000000000000B5B00008B9AF0008E3
:10004000915200089152000819AF0008915200081F
:1000500091520008915200089152000891520008F4
:1000600091520008915200089152000891520008E4
:10007000C5A800089152000871B300089152000809
:1000800091520008915200089152000800000000AF
:1000900091520008915200089152000891520008B4
:1000A0009152000891520008915200084DB2000888
:1000B000915200088DB4000800000000CDAF000888
:1000C00010B5064C2378002B07D1054B002B02D02E
:1000D000044800E000BF0123237010BD5404002039
:1000E0000000000044C10008044B10B5002B03D0F1
:1000F0000349044800E000BF10BDC04600000000F6
:100100005804002044C100080023C25C0133002AC7
:10011000FBD1581E7047000002B4714649084900DF
:10012000095C49008E4402BC7047C04603B4714666
:10013000490840004900095A49008E4403BC7047F1
:10014000002243088B4274D303098B425FD3030A16
:100150008B4244D3030B8B4228D3030C8B420DD329
:10016000FF22090212BA030C8B4202D312120902B7
:1001700065D0030B8B4219D300E0090AC30B8B42F5
:1001800001D3CB03C01A5241830B8B4201D38B03A3
:10019000C01A5241430B8B4201D34B03C01A524148
:1001A000030B8B4201D30B03C01A5241C30A8B428B
:1001B00001D3CB02C01A5241830A8B4201D38B0276
:1001C000C01A5241430A8B4201D34B02C01A52411A
:1001D000030A8B4201D30B02C01A5241CDD2C3098C
:1001E0008B4201D3CB01C01A524183098B4201D308
:1001F0008B01C01A524143098B4201D34B01C01AF3
:10020000524103098B4201D30B01C01A5241C3086A
:100210008B4201D3CB00C01A524183088B4201D3D9
:100220008B00C01A524143088B4201D34B00C01AC5
:100230005241411A00D20146524110467047FFE731
:1002400001B5002000F006F802BDC0460029F7D035
:1002500076E770477047C0468446101C62468C465D
:10026000191C634600E0C0461FB501F0EDFE0028F2
:1002700001D40021C8421FBD10B501F045FE404227
:10028000013010BD10B501F0DFFE002801DB0020B9
:1002900010BD012010BDC04610B501F0D5FE0028EC
:1002A00001DD002010BD012010BDC04610B501F0D9
:1002B00067FE002801DC002010BD012010BDC046F3
:1002C00010B501F05DFE002801DA002010BD01200C
:1002D00010BDC0468446081C6146FFE71FB500F00C
:1002E0004FFC002801D40021C8421FBD10B500F00A
:1002F000D1FB4042013010BD10B500F041FC002898
:1003000001DB002010BD012010BDC04610B500F07B
:1003100037FC002801DD002010BD012010BDC046C3
:1003200010B500F0DFFB002801DC002010BD01202B
:1003300010BDC04610B500F0D5FB002801DA002042
:1003400010BD012010BDC046002B11D1002A0FD1D5
:10035000002900D1002802D00021C943081C07B49D
:10036000024802A14018029003BDC046E9FEFFFF0B
:1003700003B4684601B5029800F01EF8019B9E4642
:1003800002B00CBC7047C0469E2110B5C905041CC4
:10039000FFF7D0FF002803D1201C00F037FF10BD6D
:1003A0009E21201CC90500F06DFD00F02FFF802369
:1003B0001B069C466044F2E7F0B54F464646D646DB
:1003C000C0B5040082B00D00914698468B422FD8EC
:1003D0002CD04146484602F0B9FD29000600200015
:1003E00002F0B4FD331A9C46203B9A4600D576E0D5
:1003F0004B46524693401F004B46624693401E00B8
:10040000AF4228D825D05346A41BBD41002B00DAAB
:100410007BE0002200230092019301235246934087
:100420000193012362469340009318E08242D0D9A1
:1004300000220023009201930A9B002B01D01C6034
:100440005D600098019902B01CBC90469946A24696
:10045000F0BDA342D7D90022002300920193634646
:10046000002BE9D0FB079846414672080A437B08F7
:1004700066460EE0AB4201D1A2420CD8A41A9D41BF
:10048000012024196D410021013E24184D41002E08
:1004900006D0AB42EED9013E24196D41002EF8D1B1
:1004A00000980199534600196941002B23DB2B006A
:1004B0005246D3402A006446E2401C0053461500D1
:1004C000002B2DDB26005746BE4033002600674632
:1004D000BE403200801A994100900191ACE762461B
:1004E00020239B1A4A46DA406146130042468A405E
:1004F00017001F4380E7624620239B1A2A006646A6
:100500009A402300F3401343D4E76246202300219E
:100510009B1A0022009101920122DA40019280E7A9
:100520002023624626009B1ADE402F00B046664616
:10053000B74046463B003343C8E7C046F8B5474698
:10054000CE4643025B0A4400C20F9C464800DD00D1
:100550004B02240E5B0A000E80B598462600914699
:10056000C90FDB00271A8A4229D0002F15DD002889
:100570004AD1002B00D095E0ED08FF2C00D188E097
:100580006B025B0AE6B25B02F605580A3043D207FB
:1005900010430CBC90469946F8BD002F00D087E070
:1005A000601CC0B2012800DCB6E0EE1A720100D572
:1005B000C5E0002E3DD1002200260023E3E7002FF6
:1005C00000DC96E000285DD0FF2C60D08022D204B1
:1005D00013431B2F00DDECE02022D21B18009340B8
:1005E000F8405A1E93410343ED186B017BD501344B
:1005F000FF2C00D1B7E0012207262A406B089A4D54
:100600001D4015432E4029E0FF2CB5D08022D20496
:1006100013431B2F00DDB2E02022D21B19009340B0
:10062000F9405A1E93410B43ED1A6B015BD5AD01A6
:10063000AE09300002F06CFC05388640844265DC6F
:10064000041B330020200134E340041BA640751E28
:10065000AE41334307261D0000241E4001224B46B5
:100660001A40002E04D00F232B40042B00D0043559
:100670006B0100D480E70134E6B2FF2C2FD1FF26B6
:10068000002380E7002B52D1FF2C00D074E70A0032
:10069000ED08002DF3D08023DB032B435B025B0AC4
:1006A000FF2670E7013F002FBED0FF2CB1D163E7DA
:1006B000002C47D0FF2869D08024E4047A422543E7
:1006C0001B2A00DDC5E02C002026D440B21A95403C
:1006D0006A1E954125435D1B04008946A5E7AB01D1
:1006E0005B0A50E7002401224B461A406B07BAD13F
:1006F00042E7002F3BD10134E0B201284ADDFF2C54
:10070000BDD00726ED186D082E40A7E70723574DEB
:10071000241A35401E40A1E7002C1BD1002D6ED1BC
:10072000002B00D19AE00A001D003C0024E7013FA5
:10073000002F00D158E7FF2C00D04AE7A7E75E1B47
:10074000894676E7002D1CD10A00FF281FD004003F
:100750001D0011E7002D5DD1002B17D18023002251
:10076000DB03FF260FE70A00FF2600230BE7002C20
:1007700021D1002D66D1FF28E9D11D0087E7012393
:1007800052E77A1CA7D0FA43FF2899D10A001D002E
:10079000FF24F1E6002E21D1002D4FD0002B4CD0AC
:1007A000ED186B019ED5314B07362E4001241D40BC
:1007B00054E7012318E7FF28DFD08024E4047F42B8
:1007C00025431B2F4DDC2026F61B2C00B540FC409A
:1007D0006A1E95412543ED18040006E7002DCCD094
:1007E000002B00D153E780216046C903084203D0A3
:1007F0004046084200D11D000121114047E7002B6F
:1008000000D1B9E6EA1A500125D507265D1B2E4016
:10081000894623E7FF24002B00D1ADE68022604605
:10082000D203104204D04046104201D11D00894637
:1008300001224B46FF241A409EE62B00DD080A00E9
:1008400000249DE67A1CC6D0FF43FF28B9D11D00C5
:100850001DE701253FE7151E00D044E700220023D5
:1008600091E60125B7E7C046FFFFFF7DFFFFFFFBD5
:10087000F8B557464E464546DE464402E0B54600CA
:100880008846640A360EC70F002E63D0FF2E24D090
:100890008023E400DB041C43002399469B467F3EF3
:1008A000434642465D02D20F5B006D0A1B0E904626
:1008B000924665D0FF2B55D080220021ED00D20456
:1008C0007F3B1543F61A43464A467B400F2A00D920
:1008D0008DE06D48920082589746002C54D1082331
:1008E0009946063BFF269B46DAE700255346022938
:1008F0001BD0032900D1BFE0012928D030007F3070
:10090000002820DD6A0704D00F222A40042A00D0E4
:1009100004352A0103D530005C4A80301540FE289A
:1009200003DCAC01640AC2B201E0FF2200246402CD
:10093000D205600ADB07104318433CBC9046994639
:10094000A246AB46F8BD0122101A1B287CDD00220E
:100950000024ECE7002C1DD104239946033B00261C
:100960009B469DE7FF3E002D20D1022143464A468B
:100970007B400A430F2AD8D84548920082589746B0
:10098000002D19D10121F1E70C239946093BFF26DF
:100990009B4685E7200002F0BBFA7626431F9C4069
:1009A00000237642361A99469B4679E74A46032346
:1009B0001A439146032186E7280002F0A9FA431F53
:1009C00036189D40763600217DE780240023E4031D
:1009D000FF22ACE700258023DB031C4228D01D4208
:1009E00026D12B435C02640A4346FF229FE7620143
:1009F0006C01A24224D21B210025013E01271000D8
:100A00006D005200002801DB944201D8121B3D43C7
:100A100001390029F3D11400621E944125436DE78A
:100A2000BA46594625005346022900D061E77CE7C3
:100A30008023DB031C436402640A3B00FF2276E749
:100A4000121B1A210125D9E79E362A00B5402C0039
:100A5000C240651EAC411443620704D00F222240FD
:100A6000042A00D00434620103D4A401640A0022E1
:100A70005DE7012200245AE78024E4032C4364024A
:100A8000640AFF2253E7C04684C10008FFFFFFF756
:100A9000C4C1000870B542004E024C0045026D0A08
:100AA000120EC30F760A240EC90FFF2A0FD0FF2C97
:100AB00011D00120A24200D070BDB542FCD18B42C2
:100AC0000DD0002AF8D12800451EA841F4E70120E6
:100AD000002DF1D1EBE70120002EEDD1E9E7002058
:100AE000EAE7C04670B54A004E02450244006D0A6E
:100AF000240EC30F760A120EC90FFF2C15D0FF2A41
:100B00000ED0002C15D1002A01D1002E1CD0002DB2
:100B100014D08B4227D00220013B1840013870BD11
:100B2000002EEED002204042F9E7002DFAD1FF2A34
:100B30000ED0002A0ED1002EEDD00BE0012301399A
:100B4000994308000130EAE70020002DE7D0E2E7F2
:100B5000002EE7D18B42DED1944205DD0221581EE2
:100B600008400138DBE70024A24204DCB542D2D8B9
:100B70000020B542D3D2581E012398430130CEE75E
:100B800030B5420044024D02C30F4800640A120E01
:100B90006D0A000EC90FFF2A12D0FF280CD0002AC0
:100BA00012D1002819D1002D17D1002C2BD00220F2
:100BB000013B1840013826E0002DF0D0022022E051
:100BC000002CFBD1FF281FD000281FD1002D1DD1E4
:100BD0000220013B1840013815E0002C0ED08B425A
:100BE000E5D10022904204DCAC42E0D80020AC42C7
:100BF00009D2581E01239843013004E00123013932
:100C000099430800013030BD002DD7D18B42CED1A1
:100C10008242E7DD0221581E08400138F3E7C04652
:100C2000F0B54E4657464546DE46E0B543025B0A00
:100C3000450083B00F1C99462D0EC60F002D57D0CE
:100C4000FF2D24D08020DB00C00418430023814600
:100C50009A469B467F3D7C027A00FB0F640A120E87
:100C6000984623D0FF2A4BD0E30080240020E404E0
:100C70007F3A1C43AD186B1C47460193534677409F
:100C80003A000F2B48D87D499B00CB589F46002B3C
:100C900000D085E008339A46063B9B467C027A00EA
:100CA000FB0FFF25640A120E9846DBD1002C00D002
:100CB00090E0524601231A4392460120DBE74C465E
:100CC00058461700022824D0032800D1CFE0002284
:100CD000002301284DD15802D205400AFF071043D6
:100CE000384303B03CBC90469946A246AB46F0BDA3
:100CF000002B5BD104239A46033B00259B46AAE7C1
:100D0000FF35002C60D1524602231A43924602203E
:100D1000B1E7FF220023DEE74B461B0C9C464B4607
:100D20002604360C180461463300220C6446000C7D
:100D300043434E435043544380191A0C12189642B1
:100D400003D9802149028C4664441B041B0C100407
:100D5000C01883015E1EB341800E1843130C1B198B
:100D60009B0103431C00230179D5012362081C4029
:100D70001443019A7F32002A4DDD630704D00F230C
:100D80002340042B00D00434230103D53C4B019AAB
:100D90001C408032FE2ABCDCA3015B0AD2B29AE777
:100DA0000C239A46093BFF259B4654E7180002F0A6
:100DB000AFF84A46431F76259A4000236D4291467C
:100DC0002D1A9A469B4646E7524603231A439246FB
:100DD000032050E7200002F09BF8431F2D1A9C408F
:100DE000763D002047E780230027DB03FF2272E7E0
:100DF000424666E74C463200584662E780234A4640
:100E0000DB031A4222D01C4220D123435B025B0A3F
:100E10004746FF225FE701239A1A1B2A21DC2300A1
:100E20000199D3409E318C401A0023005C1EA341DF
:100E300013435A0704D00F221A40042A00D0043367
:100E40005A0111D49B015B0A002244E780234A46E1
:100E5000DB0313435B025B0A3700FF223BE701958C
:100E600087E70022002336E70122002333E78023AF
:100E7000DB0323435B025B0AFF222CE704C200086A
:100E8000FFFFFFF7F8B54746CE464400C20F80B5D6
:100E900047024802400A8446664648007F0A240EFC
:100EA000F60025009046FB00000EC90FB146FF2852
:100EB00000D185E001267140261A914257D0002EBC
:100EC00043DD002800D07FE04946002900D1AAE098
:100ED000013E002E00D0F7E05B1A5A0100D48BE0EF
:100EE0009B019C09200002F013F8053884408542DC
:100EF00000DDD3E0451B230020200135EB40451BDE
:100F0000AC40621E94412343072400251C4001226B
:100F100041460A40002C04D00F211940042900D07A
:100F20000433590100D480E00135ECB2FF2D00D02C
:100F3000A3E0FF2400235B02E405580AD207204304
:100F400010430CBC90469946F8BD002E74D1601C2D
:100F5000C0B2012800DCA7E04A469C1A620100D515
:100F6000B6E0002CBED1002200240023E3E7002ECF
:100F700000DC85E0002846D0FF2C49D0802248467E
:100F8000D2041043814601221B2E09DC20204C464E
:100F9000801B84404A462000F240441EA041024388
:100FA0009B185A0128D50135FF2D00D1A8E0012258
:100FB000072494491A405B080B4013431C40A6E7E2
:100FC000002E00D078E775E7FF2C54D080224946E8
:100FD000D2041143894601221B2E09DC20214846F8
:100FE000891B88404A460100F240481E81410A435D
:100FF0009B1A5A0100D573E7012241460A4059075E
:1010000000D089E711E04846002858D1FF2C0CD1C8
:10101000DB08002B00D18CE78020C00303435B0278
:101020005B0AFF2487E7FF2C25D0DB08FF2DF0D0DB
:101030005B025B0AECB27EE7002C4DD0FF2818D093
:101040008024E404724223431B2A00DDC4E01C0018
:101050002025D440AA1A93405A1E934123434A465E
:101060000500D31A884638E7721CF8D0F243FF28EF
:10107000EAD10A004B46FF25D7E79B015B0A5AE7F6
:10108000002E41D1651CE9B2012945DDFF2D00D1BB
:101090004FE707244B445B081C4038E707225A4BB4
:1010A0002D1A2340144032E7002C1DD1002B7AD199
:1010B0004B46002B00D191E00A000025B5E7013E28
:1010C000002E19D14B446CE7FF2C84D1FF25ACE7EF
:1010D0004A468846D41A05E7002BC5D10A00FF28E6
:1010E000C8D005004B46A0E7002B49D14B46002B4A
:1010F00077D00A00FF2598E7FF2C00D043E787E769
:101100000A00FF24002316E7002C15D1002B57D12D
:10111000FF28E6D14B467BE7002C20D1002B57D08F
:101120004946002953D04B445A0168D50724364A12
:101130001C4001251340EAE6FF28EBD08022D204B0
:10114000764213431B2E53DC2025AD1B1A00AB4007
:10115000F2405C1EA34113434B44050021E7002BE2
:10116000D8D04946002900D152E78021C9030F4257
:1011700000D14DE76046084200D049E74B4647E7BB
:101180004846FF25002800D14FE78022D2031742AE
:1011900004D06046104201D14B46884601224146A8
:1011A000FF250A4041E7484600281FD01A1A50017F
:1011B00020D54A460724D31A1C4088460025A6E6B7
:1011C000741CC9D0F643FF28BCD14B4620E7994692
:1011D0004B460025DB082BE7012340E700220023D4
:1011E000A9E680230022DB03FF24A4E600251CE7F8
:1011F0000123B1E7002AF1D013000025FCE6002509
:10120000FAE6C046FFFFFF7DFFFFFFFB4102420001
:10121000C30F490A120E00207E2A0DD99D2A0CD830
:10122000802000040143952A0ADC9620821AD140CE
:101230004842002B00D108007047034A9818FBE78A
:10124000963A9140F4E7C046FFFFFF7F70B5041E59
:1012500034D001F05DFE9E22121A962A07DCD2B22B
:1012600008282EDD083884406002400A21E0992ACF
:1012700009DD030021001B3399404B1E99410523D2
:101280001B1ADC400C43052801DD431F9C40230052
:101290000D490B40650709D00F252C40042C05D0C3
:1012A00004335C0102D59F220B40121A9B01580A9D
:1012B000D2B24002D205400A104370BD0022002085
:1012C000F7E76002400AF4E7FFFFFFFBF0B54F4687
:1012D0004646D6460C000903C0B5490A470F5E00D2
:1012E00039431F03DB0F9C4665007B0A570F1F43E2
:1012F0006D0DE40F760DA146C000B846D200AB1BC1
:1013000064457BD0002B5FDD002E00D0A4E03E00C2
:10131000164300D112E15E1E002E00D09EE1871A16
:101320004346B84280410125C91A4042091A0B02BE
:1013300000D431E149024E0A002E00D16EE13000A6
:1013400001F0E6FD0300083B1F2B00DD61E12022D8
:101350003900D21A9E40D1409F400E439D4200DD8D
:1013600051E15D1B6B1C1F2B00DD7CE12021C91AA4
:101370003D0030008F408840DD40791E8F413100B4
:1013800007222843D940002507433A40002A09D0C4
:101390000F233B40042B05D03B1DBB42BF417F4286
:1013A000C9191F000B0200D426E26A1CC64B550562
:1013B0006D0D9A4200D106E1C44AFF080A40530766
:1013C00052023B43120B8EE0002B00D0B8E06B1CA6
:1013D0005B055B0D012B00DC30E1871A4346B84208
:1013E000B641CB1A76429E1B330200D54CE13B003E
:1013F0003343A1D100220024002570E0002B00DC43
:10140000E5E0002E00D183E0AF4EB54260D08026EB
:1014100036043743B846382B00DC3EE143461343DD
:101420001F007A1E97413F188742804140420918A9
:101430000B0200D4B0E0A44B01359D4200D1C3E0C3
:10144000A24A7B080A4001210F401F435108D307DD
:1014500007221F433A4099E79B4EB54238D0802679
:1014600036043743B846382B00DDDCE01F2B00DCA8
:1014700030E11E004746203EF740BC46202B04D0FA
:101480004026F31A46469E403243170063467A1EB2
:1014900097411F43CCE0002B00D104E243461343A5
:1014A00000D159E14B07C00818438023C9081B032A
:1014B000194208D04546ED081D4204D14346D008E4
:1014C000590708432900420FC9007F4D1143C0004E
:1014D0004B07CA087C49C00803438D4268D01203F9
:1014E0006D05120B6D0D002112031800130B0A0D70
:1014F00012051A43764B2D0513402B435B00E4077E
:101500005B08234319001CBC90469946A246F0BDD7
:101510003E00164312D05E1E002E00D000E1871858
:101520008742804141444042091801250B0233D5CE
:10153000022585E764463300414610001D00C7E7D9
:10154000002D00D0DAE00C000443F3D05C1C00D185
:101550009FE15D4CA64200D12FE1DB43382B00DD3B
:1015600066E11F2B00DD83E120240500E41A0F0053
:10157000DD40D940A0404346A7405B1A441EA0412D
:1015800098462F433843171ABA4292414346524273
:10159000991A64463500CAE607223A40002A00D06C
:1015A000F6E64B07CA084849FF083B438D4296D1EF
:1015B0001900114300D19EE1802109030A4312035F
:1015C000120B414D8FE71500002200238BE7002B03
:1015D00000D0C7E06B1C5F057F0D012F00DCF1E040
:1015E000394DAB4200D1B9E085180A0085428941E6
:1015F0004244494251180722CF076D082F4349083A
:101600003A401D00C2E607223049ED1A31403A4007
:10161000BCE63E002838864000279FE6380001F0EF
:1016200077FC20308EE6434613431F007A1E974115
:10163000C71BB84280414042091A78E60E003B00C1
:1016400006431343002D61D1002E00D0F4E0002B9F
:1016500000D11BE164463900100039E71A4FBB4244
:101660007AD03300FFE630001F3DE840202B03D046
:101670004021CB1A9E4037437B1E9F4107220743E0
:101680003A400021002589E7171A4346BA42B6417D
:10169000591A76428E1B64464EE61F2B00DDADE0E4
:1016A00020264746F61AB740B9461700B246DF4033
:1016B0004E463E4337005646B240561EB24117438F
:1016C0004246DA408918AEE6FF070000FFFF7FFFC1
:1016D000FFFF0F8020264746F61AB740B94617008D
:1016E000B246DF404E463E4337005646B240561E95
:1016F000B24117434246DA40891A99E77F4CA64225
:101700005BD0802424045B42214327E7002E0CD1C8
:10171000002B00D1CBE0644639001000774DD7E6AE
:10172000764FBB4218D0330075E6002B14D04B0720
:10173000C00818438023C9081B03194207D0FC08BE
:101740001C4204D17907D0080843E14621004C46E9
:10175000420FC9001143C000684DB9E61D000022C8
:101760000023C0E6002D5BD10D00054300D1E2E669
:101770005D1C00D1B0E0614DAE421FD0DB43382B81
:1017800071DC1F2B00DD96E020250F00ED1AAF4025
:10179000B9460700AA46DF404D463D432F00554657
:1017A000A840D940451EA84188440743BF18974226
:1017B00092415142414435003AE664463500414683
:1017C000100085E60B000343002D00D063E6002BDC
:1017D000F5D04346134300D17AE68718874280410B
:1017E00007224144404209183A400B0200D4D5E692
:1017F000434B01351940C9E5380069E61E004746EC
:10180000203EF740BC46202B04D04026F31A464623
:101810009E403243170063467A1E97411F4302E6FB
:10182000364DAE42CAD080252D045B422943A6E73F
:101830000843411E8841A6E6002B00D148E6871ADE
:101840004346B842B641CB1A76429E1B33024BD573
:10185000171A4346BA429241591A5242891A07222C
:1018600064463A4092E501430F00791E8F419DE79F
:101870001C000F00203CE740202B03D04024E31A3B
:1018800099400843411E884138437CE600220024E9
:1018900025E6171A4346BA429241591A5242891A0A
:1018A0006446350043E541461000144D10E68022A1
:1018B0000024120380E61D000F00203DEF40BC46CF
:1018C000202B03D04025EB1A9940084307006346BC
:1018D000781E87411F4369E7871897429B4141441F
:1018E0005B42C9183500A3E53B003343CED0072245
:1018F00031003A4052E600231A00F4E5FF070000E9
:10190000FFFF7FFFF0B55746DE464E464546E0B541
:10191000834607000E03480085B092461C00360B34
:10192000400DCD0F002800D19DE0954B984239D055
:101930008023F6001B041E43924A7B0F33439946D3
:10194000944603006344009300230026FF000293A3
:1019500023031B0B98466300E40F52465B0D019472
:1019600000D1B3E086498B4200D19EE04246D100CF
:10197000802212040A435146490F11438B46814984
:1019800052468C4600996344CB1A0021D200009342
:101990002B0063409A460F2E00D905E17A4BB60022
:1019A0009B599F465B463343994600D0B8E00223DB
:1019B0000826002700900293CAE7CB463A00029916
:1019C0000195019B9A46022927D0032900D180E284
:1019D000012944D06D49009B8C4663441C00002CB7
:1019E00038DD530700D013E2D2085B46DB0109D58E
:1019F0005946674B19408B468021C9008C46009B95
:101A000063441C00634B9C4207DC5B4664055F0734
:101A10005B0217431B0B620D02E000230027584AAC
:101A200000211B031C0B0B0D1B05234314055A4AF5
:101A3000380013401C4353466400DB0764081C4312
:101A4000210005B03CBC90469946A246AB46F0BD8D
:101A50000122524201231B1B382B00DCADE1002286
:101A600000230027DCE75B46334399465ED0002E17
:101A700000D18AE1300001F04BFA03000B3B1C2B34
:101A800000DD7BE11D22D31A5A460100DA400839F5
:101A90008E4013005F46334399468F403F4B0026EC
:101AA0001B1A00930023029352E7414653460B430F
:101AB0003B499B468C46009B634400935B46002B4E
:101AC0003BD1022300221E43022161E74346134318
:101AD0009B4637D04346002B00D162E1404601F0DF
:101AE00017FA03000B3B1C2B00DD53E102004146BB
:101AF000083A914088461D21CB1A5146D9400B0027
:101B000041460B439B46534693401A00009B254990
:101B10009C46604403008C4663440093002137E7F1
:101B20000323B14600900C26029311E70023009393
:101B300001330426002702930AE70323C3461E430A
:101B4000032125E701331E430022012120E7002362
:101B50009A46802300271B03094A61E780234946F0
:101B60001B03194200D1E2E05946194200D0DEE0E1
:101B70000B431B0317001B0BA246014A50E7C0464C
:101B8000FF07000001FCFFFF44C20008FF03000044
:101B9000FFFFFFFEFE070000FFFF0F800DFCFFFFB1
:101BA00001F8FFFFF3030000D94500D9CBE000D1D5
:101BB000C6E03C0048460027009B013B00935B4683
:101BC000160E1B021E431302984633041B0C994643
:101BD000310C0191FEF73AFB4A4642430B04210CBB
:101BE000050019438A4207D98919013D8E4203D85D
:101BF0008A4201D9851E8919881A0199FEF726FBA8
:101C000009048C464A46210464464243090C0300F9
:101C100021438A4204D98919013B8E4200D8F1E060
:101C20002D041D43AB464346891A4246280C120434
:101C30001D0C5B46140C22001B041B0C5A4303941E
:101C40006B434443029568431B19150CEB189C42E7
:101C500003D980246402A44660441C0C15041B04B0
:101C60002D0C20185D19814277D373D00C1AA24A2B
:101C70007D1BAF42BF419446009B7F426344E01B03
:101C80001C00864200D1DBE00199FEF7DFFA4A46EC
:101C900042430B04290C070019438A4207D98919CA
:101CA000013F8E4203D88A4201D9871E8919881ABA
:101CB0000199FEF7CBFA09044A46894629044D46A4
:101CC0004243090C030029438A4207D98919013B81
:101CD0008E4203D88A4201D9831E89193F04891A8A
:101CE0003A00039F1A43380013041B0C58438146E3
:101CF0000298150C6F43434345434846000C844605
:101D0000DB1963449F4203D9802040028446654426
:101D100048461F0C00041B04000C7D191818A9422A
:101D200000D284E000D17FE001231A4357E68023EC
:101D30004A461B0313431B031B0BAA466F4A6FE65D
:101D4000BA4200D935E74B46DC0758087B081C43EC
:101D5000FF0734E70024AF4289D247444745A441F6
:101D60005B466442A4196418013BA6421ED2A042FD
:101D70006DD800D1B6E0241A9B4678E703005A4696
:101D8000283B9A400027914688E6584601F0C0F863
:101D9000203072E603005246283B9A4093460022C8
:101DA000B4E6504601F0B4F820309AE6A642E2D1FB
:101DB000B845DCD9341A9B4659E71F2B65DC504CDB
:101DC0000099A4465C46614408008C4011008240A2
:101DD000D940501E82410C4314435A46DA40130046
:101DE000620709D00F222240042A05D02200141DC8
:101DF0009442894149425B181A0262D501220023AC
:101E000000270DE68A4200D80AE7831E891907E7F2
:101E10000F231340042B00D1E6E5171D9742924192
:101E200053429B44FA08E0E5002800D1D7E5711839
:101E3000531EB14227D3A94215D358D01A0073E7D5
:101E4000002B00DC04E6012300229B44CDE50223A5
:101E50004744474589415B429C46494289190C19D0
:101E6000E344241A03E743465F0047459B41B846D5
:101E70005B429E19023A8919A94200D054E74045B5
:101E800000D051E7ABE51A00F6E71F215F46494253
:101E90000C1BE740202B07D01A49009B8C4663445B
:101EA00018005B4683401A43501E82413A4307277D
:101EB0000023174009D00F210023114014000429EA
:101EC00095D122005F075B021B0BD208174300224B
:101ED000A6E5802359461B030B431B0317001B0B6E
:101EE000064A9DE5BD42B2D89B460024BFE6804528
:101EF000B9D31A00C3E7C046FF030000FF07000084
:101F00001E0400003E040000F0B54F464646D6468B
:101F10008446C0B58046194E18030F034D00000BD0
:101F20005C0082463F0B6D0DC90F9146640DDB0FBF
:101F30000120B5420AD0B44203D0A54201D1574591
:101F40000CD01CBC90469946A246F0BD66463E4366
:101F5000F7D1AC42F5D154461443F2D10120C84523
:101F6000EFD1994207D0002DEBD163461F433800D3
:101F7000471EB841E5E70020E3E7C046FF07000041
:101F8000F0B54F464646D6464D00C0B50E03C90FC4
:101F90008A462C491F035C008046360B6D0D914626
:101FA0003F0B640DDB0F8D421ED08C4216D0002DEE
:101FB0001ED130438446002C01D13A4323D06246DF
:101FC000002A1AD09A4529D05146022001390840EA
:101FD00001381CBC90469946A246F0BD3900114319
:101FE000E5D002204042F4E73043FAD1AC420FD0B2
:101FF000002C0FD13A43E7D00CE00122013B934380
:1020000018000130E5E763460020002BE1D0DBE754
:102010003A43E6D19A45D7D1A542D5DCA54205DBA6
:10202000BE42D1D808D00020BE42D2D250460123B1
:10203000013898430130CCE7C845C5D80020C845D1
:10204000F4D3C6E7FF070000F0B54F464646D64634
:102050004D00C0B50E03C90F8A462E491F035C0010
:102060008046360B6D0D91463F0B640DDB0F8D42A4
:1020700018D08C4211D0002D18D130438446002C4A
:102080001ED13A431CD163460020002B30D051466C
:1020900002200139084001382AE039001143EAD012
:1020A000022025E03043FBD1AC4226D0002C26D1C3
:1020B0003A4324D15146022001390840013817E043
:1020C0006246002A0FD09A45E1D1A54205DBBE4207
:1020D000DDD819D00020BE420AD250460123013873
:1020E0009843013004E00122013B93431800013082
:1020F0001CBC90469946A246F0BD3A43D0D19A45C1
:10210000C5D1A542C3DCE0E7C845C0D80020C8451A
:10211000E3D3EDE7FF070000F0B55746DE464E4635
:102120004546E0B5834606000F03480087B0924657
:102130001D003F0B400DCC0F002800D16FE0DE4B9F
:10214000984238D08023FF001B041F43730F3B438A
:102150000193DA4B0027994600239B46F600814401
:102160002B0369001B0B52469846490DED0F0029C1
:1021700000D185E0D04B994200D173E04346DA00AC
:1021800080231B0413435246CC48520F844613430A
:10219000524600206144D2008944210069400091E8
:1021A0008C46012149448A460F2F00D990E0C4494A
:1021B000BF00CF59BF465B463B43019300D06AE165
:1021C00002230827002681469B46C9E7320058466D
:1021D000019B61460091022800D175E0032800D1DF
:1021E000FEE1012800D02CE1002300270026002575
:1021F0003F032A0D3F0BB34812053A4302401B052B
:102200001343009A5B00D1075B080B4330001900B1
:1022100007B03CBC90469946A246AB46F0BD5B4633
:102220003B43019300D12FE1002F00D1A5E13800FD
:1022300000F06EFE03000B3B1C2B00DD96E11D221F
:10224000D31A5A460100DA405E4608398F4013001F
:102250008E403B4301939C4B00271B1A9946002359
:102260009B467DE7414653460B4393498C46E144E8
:10227000002B00D01AE102220220174300228CE733
:10228000134300D10DE14346002B00D181E14046CC
:1022900000F03EFE02000B3A1C2A00DD72E1010054
:1022A000434608398B4098461D239A1A5346D3401B
:1022B0001A004346134352468A404946081A824947
:1022C00089468144002068E77B4B002700268EE783
:1022D000140C1204120C1100370C3604350C79431F
:1022E00028008C462E0060436044834656432100FC
:1022F000300C80465846794340440291844506D9C3
:102300008846802149028C46E044414602913604C9
:10231000010C360C00048B4681191E0C1B041B0C8F
:102320000391190079438C46280075436544A846FB
:102330005843050C45447743A94203D980214902FB
:102340008C466744290C8C4639000004000C2D048F
:102350002D186144AB4405915946049101990F042D
:102360003F0C080C390051434243904602008C4612
:10237000090C8B4662437C4344445C44A04503D92A
:102380008021490288464244210C8846614609045E
:10239000090C8C4639005943434370437E430F0C6C
:1023A000F6182404BE19644442448C46B34203D94F
:1023B00080235B0298464044029B61469846049BFA
:1023C000370443449B46AB45AD416B420D04059930
:1023D0002D0C8C467F196744FD18A8465D462D19C3
:1023E000A542A44193466442A446C344DC448F42C0
:1023F000BF4198459B4193459241A445A4415B420E
:102400007F421F43360C52426442BF192243BF1819
:10241000624638184302D20D039913436A020A43F5
:10242000501E82416146ED0D2A434E023243D901CE
:1024300000D4B3E00126500832400243DE073243A5
:102440005B08224C5444002C62DD510709D00F2058
:102450001040042805D0101D9042924152429B1812
:102460000200D90104D580241948E40003405444F3
:102470001848844200DD27E75E075B02D2081F0B85
:10248000630516435B0DB2E600239946013304272A
:1024900000269B4664E60323019781460C279B4652
:1024A0005EE6012201201743002276E60323032083
:1024B0001F43434671E6C046FF07000001FCFFFFD3
:1024C00084C20008FFFF0F800DFCFFFFFF03000028
:1024D000FFFFFFFEFE0700000023802700933F035D
:1024E0000026434B83E6019B3200A446584670E623
:1024F000AC466EE6802701993F0339422DD03B421E
:102500002BD11F433F033F0B00951600384B6EE65F
:1025100001252D1B382D00DD66E61F2D40DC3548DA
:102520001C005044160082408440EE40501E824100
:1025300034431443EB40620709D00F222240042A9F
:1025400005D02200141D9442804140421B181A02FB
:102550003ED501230027002649E68027019B3F0343
:102560001F433F033F0B0094214B40E603005A46B4
:10257000283B9A40002601926DE6584600F0C8FCC0
:10258000203057E603005246283B9A4013000022B1
:1025900093E6504600F0BCFC20307BE6CA4650E78C
:1025A0001F201E004042041BE640202D03D0124C89
:1025B0005444A3401A43501E824132430726002749
:1025C000164009D00F200023104014000428B9D170
:1025D00022005E075B021F0BD2081643002306E6AB
:1025E00080273F031F433F033F0B1600004BFEE5D0
:1025F000FF0700001E0400003E040000F8B5574627
:102600004E464546DE460C000903E0B5490A460F32
:102610005F0031431E03DB0F760A9B46530F3343A3
:10262000C84E6500C000E40FD2006D0DA246814681
:102630007F0D9C469046B74200D1B9E05B4601262B
:1026400073409B46EE1BA34500D183E0002E63DD63
:10265000002F00D0B1E06346134300D123E1731E85
:10266000002B00D0BAE1861A6346B04280410125B2
:10267000C91A4042091A0B0200D447E149024B0A29
:1026800098464346002B00D189E1404600F040FCCB
:102690000300083B1F2B00DD7CE120223000D21A12
:1026A0004146D040994002009E400A439D4200DDD1
:1026B0006AE15D1B6B1C1F2B00DD94E120211000E3
:1026C0003500C91A8E40DA408840DD40711E8E41C7
:1026D000110007222843002506433240002A09D072
:1026E0000F233340042B05D0331DB342B64176424D
:1026F00089191E000B0200D43DE26A1C914B55055E
:102700006D0D9A4200D119E18F4AF6080A40570729
:1027100052023743120B9BE0002E00D0C5E06E1C26
:102720007605760D012E00DC48E16746861ACB1B44
:10273000B042BF417F42B8461F004346FF1A3B00EC
:10274000B8461B0200D55FE137439AD1002200242E
:10275000002579E0002E00DCFAE0002F00D18DE0AA
:10276000784B9D4267D0802367461B041F43BC46BD
:10277000382E00DC52E1634613435A1E93411E1863
:1027800086428041404209180B0200D4BEE06D4BE6
:1027900001359D4200D1D2E06B4A73080A40012105
:1027A0000E401E435108D30707221E43324095E7CF
:1027B0001E00164300D045E740E7624B9D423AD0E9
:1027C000802367461B041F43BC46382E00DDEBE028
:1027D0001F2E00DC3AE133006746203BDF403B0020
:1027E000202E05D04027BF1B6646BE403243904690
:1027F0004646721E96413343DAE0002B00D114E2C4
:102800006346134300D168E180234E07C008C9081E
:102810001B030643194208D06046C008184204D181
:1028200063460100D2085E071643F3009946C900CB
:10283000720F444D11434B46DE08424B4F0737435E
:10284000CA089D4200D16EE012036D05120B6D0D9A
:1028500000211203130B0A0D12051A433B4B2D05E1
:1028600013402B435B00E4075B0823433800190047
:102870003CBC90469946A246AB46F8BD634613431E
:1028800011D0731E002B00D007E1861886428041CC
:1028900061444042091801250B0237D502257BE728
:1028A0003E00614691463500C5E75C46002D00D0EC
:1028B000E1E00B000343F3D0731C00D1ACE1214BEA
:1028C0009F4200D13AE1F343382B00DD6FE11F2B2B
:1028D00000DD8CE120250E00ED1AAE40B04606006A
:1028E000AA46DE40454635432E005546D940A8400D
:1028F0006346451EA8415B1A9C463043161AB242F5
:10290000924163465242991A3D00B4E60722324092
:10291000002A00D0E4E60B4BF6084F073743CA08FD
:102920009D4200D090E73B00134300D1A6E18023F5
:102930001B031A431203120B024D89E715000022F4
:10294000002785E7FF070000FFFF7FFFFFFF0F80E5
:10295000002E00D0C7E06B1C5E05760D012E00DC5A
:10296000F0E0C84DAB4200D1B9E085180A008542BD
:1029700089416244494251180722CE076D082E430F
:10298000490832401D00A9E6BF49ED1A114007224F
:102990003240A3E6320028388240002686E6300026
:1029A00000F0B6FA203073E6634613435A1E934193
:1029B000C61AB04280414042091A5CE60E006746E2
:1029C00006431743002D5ED1002E00D0F3E0002F08
:1029D00000D11EE15C46614691462CE7A94FBE42FC
:1029E0007BD01E00F1E610001F3DE840202B03D0F5
:1029F0004021CB1A9A401643731E9E41072206437C
:102A000032400021002583E7161A6346B242804116
:102A1000591A40420B1A98465C4632E61F2E00DDDA
:102A2000ABE02027BB1B9A4663465746BB409946FE
:102A300013004F46F3401F433B005746BA40571E12
:102A4000BA4113436246F240891898E62027BB1B1F
:102A50009A4663465746BB40994613004F46F3409B
:102A60001F433B005746BA40571EBA4113436246C4
:102A7000F240891A9CE7834B9F425FD080252D044A
:102A80007342294320E7002E0CD1002F00D1D0E063
:102A90005C46614691467B4DCDE67A4FBE421CD0E6
:102AA0001E0065E6002F18D0C0084E0706438020A0
:102AB000C9080003014208D06346DC08044204D17F
:102AC0002100DA46D2085E071643F3009946012436
:102AD0005346C900720F11431C406A4DABE61D00FE
:102AE00000220027B4E6002D59D10B00034300D18A
:102AF000D6E6731C00D1B2E0624B9F421ED0F34376
:102B0000382B6FDC1F2B00DD97E020250E00ED1A1F
:102B1000AE40B0460600AA46DE40454635432E008C
:102B20005546A840D940451EA8418C440643B618D6
:102B300096429241514261443D0025E63D00614686
:102B4000914678E60B000343002D00D055E6002B9C
:102B5000F5D06346134300D16DE686188642804166
:102B600061444042091800220B0200D4D0E6464BD3
:102B700001351940B2E5B1465DE633006746203BBA
:102B8000DF403B00202E05D04027BF1B6646BE40DD
:102B9000324390464646721E96413343EFE5394B29
:102BA0009F42CBD080252D0473422943A8E70843D8
:102BB000411E8841A2E6002F00D13CE66346861AFA
:102BC000CF1AB0429B415B42FB1A98461B024ED57E
:102BD000161A6346B2429241591A5242891A5C4609
:102BE00000227BE501430E00711E8E419FE71D0010
:102BF0000E00203DEE40B046202B04D04025EB1ABD
:102C000099400843814648464346411E884118433F
:102C100074E60022002417E6161A6346B242924177
:102C2000591A5242891A3D0025E561469146154DD3
:102C300001E680220024120379E61D000E00203DEB
:102C4000EE40B046202B04D04025EB1A99400843B3
:102C500081464E464346711E8E411E4367E78618E5
:102C600096429B4161445B42C9183D008CE5474652
:102C70003743CED007224146324049E600273A008A
:102C8000E6E5C046FF070000FFFF7FFF70B50028A4
:102C90002DD0C317C5185D40C40F280000F038F9C7
:102CA000154B1B1A5B055B0D0A2815DD0B3885409B
:102CB00000222D032D0B002110002D030A0D2D0BDA
:102CC00012052A430D4D1B052A4013435B00E40700
:102CD0005B082343190070BD0200290015329140A2
:102CE0000A000B21081AC5402D032D0BE3E7002431
:102CF000002300250022DEE71E040000FFFF0F80F6
:102D000010B5041E25D000F003F9144B1B1A5B0507
:102D10005B0D0A2812DD0B38844000222403240BAB
:102D20000021100024030A0D240B120522430C4C31
:102D30001B05224013435B00590810BD020021000F
:102D4000153291400A000B21081AC4402403240BB9
:102D5000E6E7002300240022E2E7C0461E0400004C
:102D6000FFFF0F804100090E4B1C70B5DBB246021D
:102D7000750AC40F012B14DDE0239B006D07360B91
:102D8000CB1800210A0D280012051C4D32435B05AB
:102D90002A405B0813435B00E4075B0823431900E8
:102DA00070BD002914D1002D1ED0280000F0B0F80D
:102DB0000A281CDC0B232A001B1ADA4003001533F7
:102DC0009D400F4B12031B1A5B05160B5B0DD8E7DA
:102DD000002D06D0320B802636036D071643094BB3
:102DE000CFE7084B0026CCE700230026C9E7030005
:102DF0002A000B3B9A400025E3E7C046FFFF0F8007
:102E000089030000FF070000F0B54C00640D0B03C0
:102E1000621C5B0A460F5205C90F1E43C500520DC6
:102E2000012A29DD374BE718FE2F1CDC002F3BDD84
:102E30008001431E98410722F3006D0F03432B438B
:102E40001A40002A04D00F221A40042A00D004336A
:102E50008022D2041A4024D00137FAB2FF2F02D0C8
:102E60009B01580A01E0FF2200204002D205400ADF
:102E7000C90710430843F0BD3543002C04D1002D91
:102E80000AD100220020F0E7002DECD08020C00302
:102E90003043FF22E9E7002400235B02580AE2B234
:102EA000E3E7DB083C00F8E73B001733F3DB802364
:102EB0001B0433431E26F61B1F2E14DD0222524232
:102EC000D71B1A00FA401700202E04D00E4A944651
:102ED0006444A3401D432B005D1EAB4107223B43CE
:102EE0001A400027ADE7094A2800A21895409340F0
:102EF0006C1EA541F04007222B4303431A400027D4
:102F00009FE7C04680FCFFFFA2FCFFFF82FCFFFFA3
:102F10001C2101231B04984201D3000C10391B0A09
:102F2000984201D3000A08391B09984201D30009CD
:102F3000043902A2105C40187047C0460403020224
:102F400001010101000000000000000010B500298F
:102F500003D1FFF7DDFF203002E0081CFFF7D8FFA8
:102F600010BDC046FA210A4B70B5890005001868EB
:102F7000FDF7E6F800F074F804000120002C05D1FC
:102F800002382200290000F037F8200070BDC0464A
:102F9000000000204023084A10B5116800200B43B0
:102FA0001360FFF7DFFF041E03D100F05FF920007C
:102FB00010BD0124FBE7C04600200240024A13680E
:102FC000013313607047C04618100020014B186889
:102FD0007047C0461810002070B50400FFF7F6FFD8
:102FE000631C5A1E93410500E418FFF7EFFF401BD6
:102FF000A042FAD370BD000030B5FF2503242A009B
:10300000C3B21C40E400A24089012940D243A14040
:1030100000280BDA0F200340083B0A489B089B005E
:103020001B18D86902401143D96130BD064B800896
:103030008000C018C0239B00C45822401143C150D7
:10304000F3E7C04600ED00E000E100E01F23184078
:103050001E3B8340014A13607047C04600E100E018
:10306000094A431E012093420DD8C021074A08484F
:103070005360036A09061B021B0A0B43036200200C
:103080000723906013607047FFFFFF0010E000E02F
:1030900000ED00E08021274A4900906930B5002307
:1030A000084205D0244802334469234343610B009E
:1030B000802091698000014205D001211E4C03430C
:1030C00065692943616180209169C000014205D092
:1030D0000821194C03436569294361618020916986
:1030E0000001014205D00421134C034365692943C3
:1030F0006161802091698001014205D010210E4C50
:1031000003436569294361619169890305D52020DD
:10311000094C034361690143616180209169400268
:10312000014205D04021044C034365692943616194
:10313000936130BD002002401C10002070B50400D7
:10314000FFF744FF01250600184A13009169294240
:103150001FD102219069084200D091619A69D2057D
:1031600013D49A69920510D49A6952050DD49A69BC
:1031700012050AD49A69920407D4802298699202AF
:10318000104002D19B69DB0308D5FFF783FF0120C4
:1031900004E0611CDAD0002C01D1032070BDFFF7E0
:1031A00015FF801BA042CFD9F7E7C04600200240A0
:1031B0000122084B0020596811420AD0EFF3108118
:1031C00072B60548D8600548D86081F31088586801
:1031D0001040704700200240EFCDAB890504030288
:1031E0000123034A002051680B4353607047C046D7
:1031F0000020024010B504000548FFF79FFF00289B
:1032000005D1044B586120600148FFF797FF10BDBE
:1032100050C300001C100020F8B5124D07002B7C95
:103220000E0014000220012B0CD001230E482B7439
:10323000FFF784FF002803D16861022F03D13460B7
:1032400000232B74F8BD012F02D1A4B23480F7E71C
:10325000002F03D00448FFF771FFF1E7E4B23470A8
:10326000EEE7C0461C10002050C30000704700006D
:10327000F0B5040087B0012600282BD0314D435D06
:10328000DBB2002B04D18A229200835402F0C8FEE4
:1032900003232068635501F063FC00230126180016
:1032A00061688B4219D300231800994226D8230065
:1032B0006A46103343CB43C203CB03C2E368616861
:1032C000A268206801F056FC0123061E29D00222C4
:1032D0001E006255300007B0F0BD5A01A218170059
:1032E00029373E70013F3B70D386F8709063D063FE
:1032F0009A1C520101331051DBB2D2E75A01A218D5
:1033000016002A36FF363070FC32013E3370F07002
:10331000D06310641A000A32520101331051DBB23B
:10332000C3E7621DD0776355E369012B02D120000A
:1033300000F087FB236A012BCCD1200000F072FB48
:10334000C8E7C0462902000070B58A25AD00435D7C
:1033500004000220012B09D001232068635501F0ED
:1033600052FE206801F0F2FB0020605570BD70B580
:103370008A25AD00435D04000220012B08D0012303
:103380006355631DD977206801F036FE0020605533
:1033900070BD70B5072604000E40700149B22518B3
:1033A00000291EDA01000120283161182935287012
:1033B0000A614A780E70CB70002A00D0CE81022BB1
:1033C00001D100230B718A25AD00635D0220012B22
:1033D00006D001232068635501F0E2FB0020605510
:1033E00070BD01002931FF312A356118FF350020F9
:1033F000DDE770B5040007200840430149B2E21838
:10340000002913DA2833E118012329328A251370A1
:10341000AD000870635D0220012B06D001232068F7
:10342000635501F0F9FC0020605570BD2933FF336E
:103430002A32E118FF320023E8E7F8B507242140DB
:103440004C0106193700FC377B64330000252A3312
:103450002936FF33FF36BD643A641D703170210098
:103460002931FF314118006801F0F0FD2800F8BD56
:10347000072319400A31490140184068704770B568
:10348000072421404D014419236400262300E263F0
:1034900001226664293328341A70217029002831EA
:1034A0004118006801F0D2FD300070BDF7B504008E
:1034B000006801F0B0FD8027030400D5D9E0206842
:1034C00001F0A9FD43050CD52368A7490633DA8F1F
:1034D00020000A40DA8702F0E0FD00212000FFF71B
:1034E00046FF206801F097FD430405D523689F49F6
:1034F0000633DA8F0A40DA87206801F08CFD8304F6
:1035000005D523689A490633DA8F0A40DA8720689E
:1035100001F081FDC3041CD5042123680233DA8F36
:103520008A43DA87DA8F49188A43DA8798239B001F
:10353000E25C012A04D100212000E15400F095FA58
:10354000200002F0CDFD23688A490633DA8F0A4055
:10355000DA87206801F05FFD030515D50822206891
:10356000854D831CD98F0A43DA87811DCA8F2A4073
:10357000CA870422D98F0A43DA8701F04CFDC304BD
:1035800002D4200002F09AFD206801F044FD80255D
:10359000284220D0982023688000991DCA8FAA4312
:1035A000CA87225C002A00D0B1E104219A1CD58F81
:1035B00054332943D1870821D58F2943D18701214D
:1035C0003C2221541B8820009B0813409922920022
:1035D000A35000F04AFA206801F01DFD830508D5CC
:1035E000236866490633DA8F20000A40DA8702F042
:1035F0004DFD206801F00FFDC30505D52368604926
:103600000633DA8F0A40DA87F7BD0F26D18F89B2E9
:103610000E4000D0C6E010231940038800292FD1A6
:10362000584A134080221202134303800300503390
:103630001A88230028331B78DB00C018524B8018EF
:10364000C0180388E26B9B059B0D6364D318E3638A
:10365000200002F011FD631DDA7F002A09D0206CE2
:10366000002806D18022D97F114322684C32118074
:10367000D8772068821DD38F1BB2002BC5DB1EE7D5
:103680009BB21A0521D5030050331A8894235B009E
:10369000E35C8C21DB00C3189B183C4A89009B1813
:1036A00022001B8829329B059B0DFF32D3616118D4
:1036B000D28801F0A9FD22683549138820000B400B
:1036C0003B43138002F0C4FCD3E71BB2002BD0DADB
:1036D00003882F4A250013403B43038003005033E7
:1036E0001A8894235B00E35C2935DB00C3189B1820
:1036F000264AFF359B181B889B059B0DEB6107D065
:10370000EA88696901F080FD6B69EA699B186B6161
:103710000021200002F0A5FC21681C4A0B00503358
:103720001B888A18D2182B69002B06D113881948D8
:103730001840194B0343138007E03D2B0FD8012598
:1037400058082B40C018800210800B88134A1A407A
:10375000C0239B015340124A13430B8089E75B0946
:103760009B020D48E6E7C046FFFBFFFFFFBFFFFFE0
:10377000FFDFFFFFFFEFFFFFFFF7FFFFFFFDFFFF93
:10378000FFFEFFFF0F8FFFFF020400000604000092
:103790008F0F0000FF83FFFF0080FFFF8FBFFFFF41
:1037A00080800000B300C218009313889BB200937E
:1037B0006B4600215B5E002B3CDA138856490500FE
:1037C0000B403B4313807301E3181A003532FF327C
:1037D000117850350C3A002956D112782988D20038
:1037E00052184E49121852181588AD05AD0D08D063
:1037F0001A00FC331900FE32128E2B00096C01F006
:1038000003FD710163181800FC30826C019352199A
:103810008264026C436C521902649C46002B02D0F5
:10382000C06B854267D261182931FF3109782000C9
:1038300002F017FC009B3B4200D11AE72368B2005C
:1038400099180A8836487601024080200002A6199D
:1038500002430A8031001A00283108785032128859
:10386000C0001B189B182F4A20009B181A88F36B66
:103870009205920D72649A18336CF2630978002BEA
:1038800042D102F0F9FBF4E6127891004118098860
:103890008C46D1006246520420D52A8882185218DC
:1038A000204952181588AD05AD0D08D01A00FE321A
:1038B000528EFC3319002B00096C01F0A5FC73013A
:1038C000E3182933FF331A78236892009A18138873
:1038D00015490B4015490B43138092E72A8882183B
:1038E00052180E4952181588AD05AD0DE7D01A00D3
:1038F000FE32928EDDE7019B20002933FF331978D9
:103900006346FFF79AFD95E7FFF7B9FDB1E62000A2
:1039100002F0D4FB5FE6C0468F0F000006040000F3
:103920000F8FFFFF020400008F8FFFFFC080000099
:1039300070B50400072563680D4001209D4220D822
:103940004BB2002B1EDA6B011900E3182831293322
:103950006118187001238A268B700D70B600A25D65
:1039600002209A420DD0A355206801F0EBFA002DF9
:1039700005D18C239B00E118206801F050FB00204A
:10398000A05570BD4B0119000022E31829312A33DC
:10399000FF31FF3361181A70DCE770B504000F23A4
:1039A00062680B40012093421AD807250D406B0135
:1039B00049B2E218002914DA28332932E1181070CC
:1039C0000D7000268A258E70AD00635D0220012BEC
:1039D00006D001232068635501F0D2FA3000665505
:1039E00070BD2933FF33E11800232A32FF321370F0
:1039F000E6E710B50C060BD5072421404901283114
:103A0000411898B2002A07D10A73C880002010BD5F
:103A100049012931FF31F3E701221B0C0A730881A8
:103A20004B81F3E79B210122036889004250583300
:103A3000198800200A431A80022219880A431A8032
:103A40007047036801009A20012210B58000982475
:103A50000A500020A4000855543319880A431A80DC
:103A6000022219880A431A8010BD70470C22194B94
:103A700010B5D9680A40082A29D00C2A09D0042A8E
:103A80001DD11868144BC006C0171840134BC0183E
:103A900010BD8A021248120F825C0902D868890F91
:103AA0000131C00304D50F485043FCF749FBEFE751
:103AB0001B68DB0601D50C48F6E70848F4E78020D0
:103AC0005B6800021B045B0F01339840E0E7054888
:103AD000DEE7C0460010024000E548FF0024F40085
:103AE000DCC2000800127A0000093D00F0B50500B4
:103AF00087B0002802D1012007B0F0BD0C23C24CD2
:103B0000E668E2681E4080235B021A400192026868
:103B1000D20741D42B689B0700D587E02B68DB06D2
:103B200028D5002E00D0E1E023689B0502D5EB6983
:103B3000002BE0D06268B5496B6A0A401A436260A4
:103B400061682A6A0902090A12060A436260802231
:103B50005B0B013312029A401300E16800200A0651
:103B6000AB49120F8A5CD340AA4A1360FFF7FAF9F7
:103B70000028C1D12B681B0700D5EEE02B685B073E
:103B800000D510E12B689B0600D595E1AB6A002BB0
:103B900000D0C4E10020AFE7082E04D00C2E09D1DC
:103BA000019A002A06D023689B03B3D56B68002BCB
:103BB000B0D1A0E76A689A4211D12268134323600A
:103BC000FFF704FA07008022236892021342A1D172
:103BD000FFF7FCF9C01B6428F5D903208CE7A0216E
:103BE000C9028A4205D180222168D2020A4322609A
:103BF000E3E7216888480140216021680B40059374
:103C0000059B864923680B402360002AD8D1FFF723
:103C1000DDF90700802223689202134200D179E780
:103C2000FFF7D4F9C01B6428F4D9D6E72022EB684B
:103C3000134203D02168934311432160042E04D022
:103C40000C2E25D1019A002A22D12268520702D5D2
:103C5000002B00D14FE761682A69714812020140C8
:103C60000A430921626022688A4313432360FFF7F5
:103C7000FDFEE368664A1B061B0FD35CD840654B0C
:103C800018600020FFF76EF9002800D146E733E7FF
:103C9000002B19D0092122688A4313432360FFF7C0
:103CA00095F9070004222368134207D062682B6944
:103CB0005B491B020A40134363602FE7FFF786F955
:103CC000C01B0228EED988E70122236893432360B2
:103CD000FFF77CF9070004222368134200D11DE797
:103CE000FFF774F9C01B0228F5D976E7EB69002BC2
:103CF00020D0802322685B0013432360FFF766F91E
:103D0000070080222368920013420DD063683F4A67
:103D100013406A6A1343636062682B6A12021B06CF
:103D2000120A1343636025E7FFF750F9C01B02280E
:103D3000E7D952E723683B4A13402360FFF746F96F
:103D40000700802223689200134200D112E7FFF798
:103D50003DF9C01B0228F4D93FE76A690123002A14
:103D600010D0226D13432365FFF730F907000222BC
:103D7000236D134200D001E7FFF728F9C01B02288A
:103D8000F5D92AE7226D9A432265FFF71FF907004C
:103D90000222236D134200D1F0E6FFF717F9C01B92
:103DA0000228F5D919E780230021A26B5B05019158
:103DB0001A4204D1A26B1343A3630123019380220F
:103DC000194F52003B68134208D08022AB68520062
:103DD00093422BD1226D134323654CE080223B6834
:103DE000520013433B60FFF7F1F880235B00029021
:103DF00003933B68039A1342E7D1FFF7E7F8029B6E
:103E0000C01A6428F5D9E8E600100240FF1FFFFF42
:103E1000C4C2000800000020FFFFFEFFFFFFFBFF01
:103E2000FFE0FFFFFFFEFFFF00700040002B16D1F8
:103E3000236D6C4A13402365236D6B4A1340236541
:103E4000FFF7C4F807008022236D920013422AD0A6
:103E5000FFF7BCF8654BC01B9842F4D9BDE6A02122
:103E6000C9008B420BD18023216DDB000B432365FE
:103E7000236D1A432265FFF7A9F807000EE0236DB2
:103E8000584A13402365236D574A1340A4E7FFF7B0
:103E90009DF8564BC01B984200D99EE68022236DA8
:103EA00092001342F3D0019B012B00D06AE6A36B72
:103EB0004F4A1340A36365E6A96901234D4A0029CF
:103EC00018D0A1681943A160616B0B436363802321
:103ED000116A9B010B431362FFF778F80700022277
:103EE000A368134200D051E6FFF770F8C01B022808
:103EF000F5D972E6A1689943A160136A3E490B4067
:103F00001362FFF763F807000222A368134200D18F
:103F10003CE6FFF75BF8C01B0228F5D95DE60C2EE6
:103F200043D0364A022B2ED12368802613402360CB
:103F3000FFF74CF80700B604236833421DD1296B04
:103F4000EB6AE2680B432E490A4013436A6B8025F3
:103F50001343E360802322685B0413432360FFF76D
:103F600035F80600AD0423682B4200D012E6FFF7B7
:103F70002DF8801B0228F6D92FE6FFF727F8C01B83
:103F80000228D9D929E62368802513402360FFF74A
:103F90001DF80600AD0423682B4200D1FAE5FFF7B7
:103FA00015F8801B0228F6D917E61800012B00D15E
:103FB000A2E58022E368E96A52021A4001208A429F
:103FC00000D099E5F022296B92031A408A4200D072
:103FD00092E5C02000040340686B181A431E984104
:103FE000C0B289E5FFFEFFFFFFFBFFFF8813000063
:103FF000FFFFFFEF00000140FFDFFFFFFFFFFFFEBD
:10400000FFFF02FFF7B5061E019101D10120FEBDA1
:104010000122514C0199236813408B4227D3326807
:1040200093072FD4D30735D40123226801991A406E
:104030008A4200D981E03268484C530700D584E0B9
:10404000130706D5E26833694549DB000A4013438C
:10405000E360FFF70BFDE368424A1B061B0FD35CCE
:10406000D840414B18600020FEF77CFFCFE7236863
:10407000019993430B43236023681340019A9342B1
:10408000C4D1CCE7F0203549CB688343B068034303
:10409000CB60C7E7314D72682B68022A19D19B03A8
:1040A000B4D50321EB688B431343EB60FEF78EFF1F
:1040B00073680700022B19D10C22EB681340082B00
:1040C000B2D0FEF783FF294BC01B9842F4D90320DE
:1040D0009DE7032A02D19B01E3D497E7012A02D18D
:1040E0005B07DED492E79B05DBD48FE7032B0BD174
:1040F0000C22EB681340934296D0FEF767FF1B4BF0
:10410000C01B9842F4D9E2E7012B10D00C22EB68D7
:10411000134289D0FEF75AFF144BC01B9842F5D9C1
:10412000D5E7FEF753FF114BC01B9842CFD80C22A6
:10413000EB681340042BF4D176E722689A4322609F
:1041400022681A4200D176E760E7E36808490B402D
:10415000F1680B43E36073E7002002400010024067
:10416000FFC7FFFFC4C20008000000208813000042
:10417000FFF8FFFF0368F7B505009B063DD58023D8
:1041800000215F4C5B05A26B00911A4204D1A26B27
:104190001343A3630123009380275A4E7F003368A3
:1041A0003B426CD06868C023C02601002268B60379
:1041B0009B023040324019401E00904200D06FE018
:1041C000236D334000D074E06968C0230A009B026D
:1041D0001A409A4207D123684B480340C02080030D
:1041E00001400B432360236D1A43009B2265012B82
:1041F00003D1A36B454A1340A3632B68DA0706D5A6
:1042000003203F49CA6C8243A8680243CA649A07E4
:1042100006D50C203A49CA6C8243E8680243CA6456
:104220005A0706D536493A48CA6C02402869024303
:10423000CA641A0706D532493648CA6C0240686912
:104240000243CA64DA0506D52D493348CA6C0240D8
:10425000A8690243CA645A0606D529492F48CA6C80
:104260000240286A0243CA6400201B0617D5244A6C
:104270002B49D36C0B40E9690B43D3640FE03368DF
:104280003B433360FEF7A2FE019033683B4289D185
:10429000FEF79CFE019BC01A6428F6D90320FEBDE0
:1042A000994200D08CE7236801209B0300D487E764
:1042B000F5E78B4200D187E72B689B0600D483E7A4
:1042C0008022216D206D120302432265226D124B64
:1042D00014480B40024022652365CB0500D473E7E8
:1042E000FEF774FE80270600BF00236D3B4200D01E
:1042F0006AE7FEF76BFE0C4B801B9842F5D9CDE7C1
:104300000010024000700040FFFFCFFFFFFFFFEFF3
:10431000FFF3FFFFFFCFFFFFFFFFFCFFFFFFFFFBF0
:10432000FFFFF3FFFFFFF7FF8813000030B5020027
:1043300084680120044010D18D684B68D0682B43FD
:10434000CD6809682B43054D284003432000D36006
:1043500013699B009B080B43136130BDC73FFFFFF0
:1043600030B502008468012004400ED14D680B680E
:10437000D0682B438D682B43CD6809692B430B43D1
:104380000249014020000B43D36030BD3CC2FEFF18
:10439000F0B500274B6885B001930E68013B02938E
:1043A0003300FB400BD1029B012B05D84368CA6840
:1043B000B34356431E434660002005B0F0BD0123C1
:1043C000BB40334033D01A0003255A435543ED43D5
:1043D000046800952C40019D55432C430460029CC9
:1043E000012C0AD88468A44665468C68544303941B
:1043F000009C2540039C2C438460C468A446654609
:104400000C6954430394009C2C402500039C2543D5
:10441000019CC560022C0AD14C69FF2B09D80F25DD
:10442000524355436243036AAB431343036201376C
:10443000B6E70F221B0A5B435B435A436343456A5B
:1044400095431D434562F2E70122036830B593436B
:104450000360CB688D681B0204682B43144D2C400D
:10446000234303604B680D69036103681A430260CC
:104470008268104B1A40826084688A69E40AE40208
:104480002A43224382601C00002D04D080238268CE
:104490001B02134383600268074B1A400B681A43E0
:1044A000026043684A69234013434360002030BDE3
:1044B000FFE0FFFFFF7FFFFFFFFFCFFFF8B5012504
:1044C000040000680E00054001D00120F8BDC020A6
:1044D0004B68C96822680B43316900010B431249DC
:1044E0000A40134323606368104A1340B2681343C1
:1044F0006360A3680E4A134072691343A36000F01F
:1045000017F90028E1D03268002ADED02900070E12
:1045100006025008801979412B00FBF715FF0003B4
:10452000000BE0602800D1E7F3E9FFEFFFCFFFFFCA
:10453000FFFCFFFF024B18684007C00F7047C046E2
:1045400000100240024B186D8005C00F7047C04636
:1045500000100240024B1868C006C00F7047C046EA
:1045600000100240034B044ADB681B061B0FD35CA0
:10457000D840704700100240C4C20008034B044AF0
:10458000DB685B055B0FD35CD840704700100240CE
:10459000D4C20008034B044ADB689B045B0FD35C66
:1045A000D840704700100240D4C2000810B50E4C2D
:1045B000E368DB0315D4FFF7CDFF431E98410B4B97
:1045C000404218400A4BC018E3680A4AE1689B025F
:1045D0001B0FD35C0902890F58430131FBF7B0FD73
:1045E00010BD0548F0E7C0460010024000E548FF56
:1045F0000024F400DCC2000800127A000C22124BE6
:1046000010B5D8681040FBF787FD14141414071474
:1046100014141C1414141100FFF79CFF431E98413E
:104620000A4B404218400A4BC01810BDFFF7BEFFAE
:10463000FBE780205B6800021B045B0F013398409E
:10464000F3E70448F1E7C0460010024000E548FFE8
:104650000024F40000127A0010B50400FFF7CEFF2A
:104660002060FFF77FFF6060FFF788FFA060606851
:10467000FFF790FFE06010BD10B5032823D1234B56
:10468000DB6C0340C02080021843214B984232D09B
:10469000204B984207D0204B98420DD1FFF7AEFF38
:1046A00010BD1E48FCE7FFF74DFF0300802000020D
:1046B000002BF5D10020F3E7FFF7A0FFFFF752FF33
:1046C000FFF768FFECE70C28F4D1104BDB6C0340DC
:1046D000C02000031843124B98420CD0114B984253
:1046E000E1D0114B9842D9D0FFF788FFFFF73AFF8E
:1046F000FFF744FFD4E7FFF71DFF0028DAD0FFF7EC
:1047000029FF0028CDD00948CAE7C0460010024062
:104710000200030003000300010003000024F40072
:1047200008000C000C000C0004000C0000093D0007
:10473000184B10B5DB6C184080231B0198420AD03F
:10474000C0231B01984216D08023DB00984219D168
:10475000FFF754FF10BDFFF7EDFE002801D1002048
:10476000F8E7FFF7F7FE431E98410B4B4042184015
:104770000A4BC018EEE7FFF7E5FE0028EFD08020D7
:104780000002E7E7FFF73AFFFFF7ECFEFFF7F6FE60
:10479000E0E7C0460010024000E548FF0024F400B6
:1047A000FA2373B59B000193C368010000205B06E8
:1047B0000ED40123012280255B42CB60CB680C4CD8
:1047C0009B0913406D02019E002E01D0012B00D1E8
:1047D00076BD23682B4202D0019B013B0193CB683D
:1047E000019E9B091340002EEDD11000EBE7C0465F
:1047F00010E000E0CA2370B54362773B43620400D7
:104800000D00FFF7CDFF012816D04022A3680C4908
:1048100093432A6800201343A3602369AA68DB0B33
:10482000DB031343236122696B680A401B041343B3
:10483000236181235B42E360FF23636270BDC04656
:10484000FFFF80FFFA2373B580219B000193C368AB
:1048500080251940A1235B420B43C3600121C3683B
:10486000020000205B091B4C0B406D02019E002ED4
:1048700002D1012810D176BD002BFAD023682B423B
:1048800002D0019B013B0193D368019E5B090B4061
:10489000002EEBD10800E9E7FA23012180259B00D7
:1048A0000193D3680B4C5B090B406D02019E002EF7
:1048B000E1D0012BDFD023682B4202D0019B013BCA
:1048C0000193D368019E5B090B40002EEED10800D6
:1048D000ECE7C04610E000E04023F0B51400826829
:1048E00085B005000F001A4201D100232360CA23BE
:1048F0006B62773B6B622800FFF752FF01281ED0E6
:1049000023680293637926790193A479002F1AD042
:10491000029B36041C43019B2F6834431E02214B2B
:1049200034431F403C432C6081221F4B5242DA60CB
:10493000AB6800209B0602D42800FFF783FFFF230B
:104940006B6205B0F0BD2B680A2120000393FBF7D2
:10495000F7FB0A2107012000FBF778FC114B039CB1
:104960000F431C40029B0A2130001C43FBF7E8FB6D
:10497000FFB227430A2104013000FBF767FC0198CE
:104980000C430A21FBF7DCFBE4B2240427430A2191
:1049900004010198FBF75AFC0C43E4B224022743BC
:1049A0002F60C1E7808080FF00280040F0B5040040
:1049B00085B00F001500002906D15378102213424C
:1049C00002D093430A336B70CA236362773B6362FE
:1049D0002000FFF7E5FE012821D06B78AE78009328
:1049E000EB782D7801936B030293244D6368002FBD
:1049F00019D01D40029B2E431E43019B1D04009BAA
:104A00002E431D0281221E4B2E4352426660DA6005
:104A1000A36800209B0602D42000FFF713FFFF23AA
:104A2000636205B0F0BD0A2130000393FBF788FBF9
:104A30000A2107013000FBF709FC039B0F431D40CF
:104A4000029B0A2101981D43FBF77AFBFEB22E431D
:104A50000A2105010198FBF7F9FB00980D430A2193
:104A6000FBF76EFBEDB22D042E430A2105010098E1
:104A7000FBF7ECFB0D43EDB22D02C3E7C00000FFD6
:104A80000028004030B5036885B004000D00DB0746
:104A900002D5012005B030BD4B68C96802680B43E0
:104AA00029690B43A9690B4320490A40134303605A
:104AB00043681F4A1340AA681343436083681D4A32
:104AC00013406A69134383601B4B03209C4203D04D
:104AD0001A4B9C4219D10C20FFF7CEFD0028D8D0EC
:104AE00029680029D5D08022AD694B081202954271
:104AF00017D14000C018FBF723FB114B0340000700
:104B0000400F1843E0600020C4E70E4B9C4204D1E4
:104B10006846FFF7A1FD0298E0E70B4B9C42B8D135
:104B2000F6E7C018FBF70CFB80B2EBE7F369FFEF89
:104B3000FFCFFFFFFFFCFFFF0038014000440040B3
:104B4000F0FF0000004C0040005000400230C38FD6
:104B5000024A1343C38700207047C04680BF00004D
:104B60000230C38F024A1340C38700207047C046FB
:104B70007F40000084B00393012302920022019140
:104B8000811CCB87831D5030CA87DA870280CB8F88
:104B900002480343CB87100004B0704780BF000079
:104BA000F7B50D788E4AAD0045192C8803001440E6
:104BB0000122C8780092032808D8FBF7ADFA024B0F
:104BC0000548802292001443002200921E00854A6C
:104BD000854F1443A4B22C800D785036AC001C19BC
:104BE000208838402843104380B220800D7B08780D
:104BF0003C00002D00D069E0C000C018CD880190B5
:104C000048786D086D00002829D034880198201854
:104C10008024E400001905800878800018180488B2
:104C2000640604D504882740704C27430780087821
:104C3000C97880001B186E4801290DD019880840DA
:104C4000202141400A4392B200981A80FEBDC02242
:104C5000D200B8E78022FBE719880140F2E73788E5
:104C600001983818634FC019058008783588C0004E
:104C7000614EC018801940190D69002D06D10588B4
:104C80005E4E2E405E4D3543058007E03D2D19D820
:104C900001276E083D407619B6020680087880002C
:104CA000181805886D0404D505882C40554D2C43F3
:104CB00004800978544889005B1819880840C0218D
:104CC0008901BEE76D09AD024D4EDCE78000181882
:104CD00005883D404D4F3D43058008783588C0002C
:104CE00040198025C018ED0040190D896D086D0030
:104CF000058035883E4E0878B4468026C0004019AD
:104D00003C4DC01840194D89F6016D086D000580B5
:104D100008784D7880001818002D2DD1058835426F
:104D200004D00588374E2540354305800878384E35
:104D30008000181805886D0604D505882540354380
:104D4000ADB2058008788000181805882C402643ED
:104D5000B6B206800C782C48A4001C1925880540A2
:104D6000C02080016840104380B2208009786046EE
:104D700089005B18198870E70788264D374204D0F0
:104D8000068826402E43B6B20680087880001818A0
:104D90000688760604D50688144F26403E430680D2
:104DA000087880001818068834402543ADB2058085
:104DB0000878CC7880001818012C0DD0644605883E
:104DC000254020246C401443A4B2048009780E4886
:104DD00089005B18198840E7654604882C40F2E793
:104DE0008F89FFFF8080FFFF8F8FFFFFC080000053
:104DF000BF8FFFFF0404000006040000FF83FFFFD5
:104E00000080FFFF80C000008FBFFFFF8081000097
:104E1000C080FFFF80C0FFFFF0B50B780D7B9B00CB
:104E20004C78C3183F4A002D21D1002C10D01C888B
:104E3000640605D51C883C4D2C403C4D2C431C8001
:104E40000B783B499B00C01803880B401A433FE096
:104E50001C88640405D51C88334D2C40354D2C43EB
:104E60001C800B7834499B00C0180388EDE780262E
:104E70002D4D2F4FF601002C2ED11C88344204D02A
:104E80001C882C4E2C4034431C800B782B4C9B00F0
:104E9000C3181E88760604D51E882E402643B6B257
:104EA0001E800B789B00C3181E8835402C43A4B28B
:104EB0001C800C78204DA400041923882B40134338
:104EC0009BB223800B789B00C01803881F403A4395
:104ED00092B202800020F0BD1C88344205D01E88AA
:104EE000174C2E402643B6B21E800B789B00C31889
:104EF0001E88740604D51E880C4C2E4026431E8046
:104F00000B780F4C9B00C3181E8835402C43A4B26D
:104F10001C800B789B00C3181C8827401743BFB226
:104F20001F809EE78080FFFF8F8FFFFFC080000003
:104F3000BF8FFFFF80C000008FBFFFFFC080FFFF5B
:104F400080C0FFFF0B780B4A9B00C0184B78002BEA
:104F500009D003880849194010234B4013439BB2E2
:104F600003800020704703880449194080235B01B7
:104F7000F3E7C0468080FFFFBF8FFFFF8FBFFFFFBB
:104F800030B50B784C789B00C318154A002C15D00F
:104F90001C88640605D51C88124D2C40124D2C43EC
:104FA0001C800B7811499B00C018038819403023DE
:104FB0004B4013439BB20380002030BD1C88640427
:104FC00005D51C88074D2C40094D2C431C800B78BF
:104FD00008499B00C01803881940C0239B01E7E7DC
:104FE0008080FFFF8F8FFFFFC0800000BF8FFFFF1B
:104FF00080C000008FBFFFFF002902D180234C300A
:105000000380002070478022583003881202134327
:105010000380002070470630C08F80B270470020A8
:10502000704730B58024E4001219013380185B0802
:10503000401A4418002B00D130BD4A780D78120276
:105040002A432280013B0231F3E70000F8B5050056
:1050500048780E008B690C690A7B012858D1A3425D
:1050600022D91B1B8B612F007169A4B25037002A13
:105070001ED1F28823002800FFF7D3FF33783A8847
:10508000DB009B18564AEB189B181C803378554A56
:105090009B00ED182B881A4030235340524A0020C1
:1050A00013439BB22B80F8BD00211C00B161DAE7ED
:1050B00033789A00AA181088DA00430617D53B887F
:1050C0009B184A4A5B199B181C8072892300280090
:1050D000FFF7A7FF72783378002A10D19B00EB18F6
:1050E00043491A880A4043490A431A80CEE73B885D
:1050F0009B183B4A5B199B181C803289E6E7012A02
:10510000C4D19B00EB183A491A880A403A49EBE7A8
:10511000A3421DD91B1B8B613178002A1CD12B00A7
:1051200050331A88314BC900EB189B185B18002CC0
:105130003CD11A8831491140314A0A431A803378E8
:10514000304A9B00ED182B881A40C0239B01A4E72E
:1051500000211C00B161DFE7002817D12B0050337C
:105160001A881F4BC900EB189B185B18002C05D13F
:105170001A8822491140224A0A4306E03D2C12D8DF
:10518000012162082140521892021A807278337805
:10519000002A19D12A0050321188144ADB00AA18BB
:1051A0005218D318C3E761098902E4E73D2C05D8FA
:1051B000012162080C4012199202BFE76409104AEB
:1051C000A40214431C80BAE7012AB8D12A00503245
:1051D0001288DB009B18054AEB189B18F2E7C046C3
:1051E00002040000BF8FFFFF8080FFFF0604000065
:1051F0008F8FFFFFC080000080C00000FF83FFFF93
:105200000080FFFF8FBFFFFFF0B58025ED00521932
:105210005C08801826000A00471ABD18002E07D126
:10522000640000190919DB0701D503880B70F0BD74
:105230002D88013E15702D0A55700232EDE70000F1
:105240000D488546002103E00C4B5B584350043168
:105250000B480C4B42189A42F6D30B4A02E000234B
:1052600013600432094B9A42F9D300F02DF806F08E
:105270001BFA06F057F9FEE7005000206CD8000832
:1052800000000020540400205404002024240020A6
:10529000FEE700000A4B10B519680200002901D191
:1052A000084919606946186882188A4206D906F0CA
:1052B000F5F90C2303600120404210BD1A60FCE7A1
:1052C00070040020282400208022104B520019680E
:1052D0000A431A60DA680E490A40DA601A680D4912
:1052E0000A4001211A609A688A439A601A680A493A
:1052F0000A401A60DA6809490A40DA6000221A6135
:105300008022074B12059A607047C0460010024089
:105310000C40FF88F6FFF6FEFFFFFBFFFFFF02FFDA
:1053200000ED00E0A5239B00C35870B5002B0ED004
:10533000A422802592008458AD00605DFF2806D02D
:10534000044A9B68A25C21009847FF236355002014
:1053500070BDC0460102000043230380004870472F
:105360003C00002043230380004870478000002059
:105370004323038000487047D00000200A230380A5
:1053800000487047C400002070B5A426B600040091
:10539000855900F08DFF83239B00E850A35902201C
:1053A000002B0AD0832381229B00E9188833E3581D
:1053B0009200DB68A8589847002070BDA423F7B579
:1053C0009B00C35806000F0001930220002B17D04A
:1053D00014254D437519E869002812D0A6239B00B7
:1053E000F3584A019B18996BFAF730FF0C1E08D14D
:1053F000E9610B000A003000390000F039FF20009D
:10540000FEBD85230020019A9B00D050F8E70000E4
:10541000A423F7B59B00C7586B466A460E00591D7A
:10542000002360240500901D0B70038033781C401E
:1054300029D0202C42D1F4887078002C1BD05BB28C
:10544000002B0CDAA5239B00EB58220039009B6847
:1054500098473900F288280000F09CFC09E080237E
:105460009B00F854184B2200FC543900280000F02F
:10547000A7FC0020FEBDA5239B00EB5822009B68E3
:1054800031009847F5E777780A2F0BD00B2F10D013
:10549000002F13D19D239B00EB5C032B0ED1022226
:1054A0000100D8E79D239B00EB5C032B06D1012272
:1054B000D1E79D239B00EB5C032BDAD02800310061
:1054C00000F041FC0220D5E70102000070B50400A5
:1054D0000025812100F07AFE0121E562200000F024
:1054E00075FE2300A426FC33DD6582212000B60072
:1054F00000F06CFEA3592564AB4208D0A5239B00A5
:10550000E3585B689847A05900F0DEFEA5510020E3
:1055100070BDF7B50600037C0400FC36002B3BD1C0
:10552000802302229B00812100F03EFE0125802382
:10553000E5629B0029000222200000F035FEF5659F
:10554000082303228221200000F02EFE012687205E
:105550002664800000F0B4FEA4239B000500E05008
:105560003000002D17D00433E35800271B689847FC
:10557000852381229B00EF500433EF50237C92005F
:105580000193BB4211D18023AA589B003100200017
:1055900000F07EFE0198FEBD0125402302228121FC
:1055A00000F002FEE5624023C4E74023AA58310020
:1055B000200000F06DFE3800EDE70223002903D043
:1055C000A5239B00C150002318007047A4239B0013
:1055D000C3588220800019508421890000205A502D
:1055E0007047A4239B00C2588C3B0020D1507047C9
:1055F000A4239B00C25810B50223002A12D0852193
:1056000089005458013B002C0CD1535084239B003B
:10561000D3580C39525888390363FF399BB200F0D4
:1056200027FE2300180010BDA4239B00C25810B50C
:105630000224002A08D0047C8C3BD258002C05D1CF
:10564000043B012100F024FE200010BD4023012175
:1056500000F01EFE0024F7E710B50223002813D047
:10566000A3239B00C458002C01D00024C45000295F
:1056700002D0A2239B00C1509D2301219B00C15455
:10568000027000F041FD0023180010BD0223002924
:1056900003D0A3239B00C15000231800704710B50E
:1056A00000F072FD002010BDA3239B00C35810B56D
:1056B000002B01D1022010BD1B6898470028FAD0AA
:1056C000F8E7A32310B59B00C3585B6898470020F8
:1056D00010BD0000A0239B0070B5C5180400280071
:1056E00000F01DFB9B2301229B00E250114BE25A6C
:1056F000163BE2501033E15C1F230B40012B0FD00F
:10570000002B07D0022B10D07F232000994300F0FC
:105710006DFD03E02900200000F010F9002070BDAD
:105720002900200000F03EFAF8E72900200000F0F0
:1057300063FAF3E78602000070B504001500002943
:1057400030D19B239B00C258032A23D1020041324F
:10575000FF32D368106983420BD91B1AD36082B21F
:10576000984200D99AB22900200000F039FB0025A8
:1057700016E0A3239B00E3581B69002B06D09D2253
:105780009200A25C032A01D120009847200000F07B
:105790002FFBECE70D00052A02D1E15000F026FDB9
:1057A000280070BDA3239B00C35802259B69002BD2
:1057B000F6D09D229200825C032AF1D19847D6E769
:1057C000F8B50D0004001100002D4BD19B239B0068
:1057D000C358022B3FD1026A466AB24212D9921BC9
:1057E000026292B200F0E4FA2B002A0029002000A5
:1057F00000F04EFD9E239B00E25C0020012A00D1B8
:10580000E054F8BDC76931003800FAF71FFD0D1EDE
:105810000CD1BE420AD89C26B600A3599F4205D29D
:105820000A00200000F0C4FAA551DDE7A3239B0085
:10583000E358DB68002B06D09D229200A25C032A6D
:1058400001D1200098478021200000F0CFFC2000EB
:1058500000F0DAFACEE704229343CBD1802100F0A6
:10586000C5FCC7E7A3239B00C35802205B69002B3C
:10587000C7D09D229200A25C032AC2D12900200039
:1058800098470020BDE7002270B5040011004023B6
:1058900000F08AFC230001254026FC339D645E65F0
:1058A000802133000022200000F07EFC9D23002197
:1058B0009B00A5616662E554083BE15010336160CE
:1058C000E1501433E3588B4205D0A3239B00E358E7
:1058D00020005B689847002070BD0174002070476D
:1058E0009D239B00C15C034A81540422C2540020C2
:1058F0007047C04675020000024BC25C013BC254B7
:1059000000207047750200009D2310B59B00C35C0A
:10591000032B06D1A3239B00C358DB69002B00D0C7
:105920009847002010BD10B50400802100F05EFCF7
:105930000021200000F05AFC10BD000060220B780E
:1059400073B5134004000D00202B14D0402B12D04F
:10595000002B00D094E04878092800D990E0FAF7AD
:10596000E5FBEE000C018F0004018F0081001300A5
:105970008F00D800A200A3239B00E35829009B6856
:1059800020009847002076BD4B88180A0138062869
:1059900076D8FAF7C1FB0425347575505B00A22355
:1059A0006A469B00E358207C1B68911D98476B4614
:1059B0009E1D318800290CD0EA88002A09D00B1CD2
:1059C000914200D9131C01009AB22000338000F0EC
:1059D000E1F9EB88002BD5D1200000F009FAD1E7DE
:1059E000A323227C9B00E358002A06D19B6A6A46C7
:1059F000901D984702234370D9E7DB6AF7E7D8B2D6
:105A000005283DD8A2229200237CA258FAF784FBF5
:105A100003090B0D0F1152686946180006319047B3
:105A2000C5E79268F8E7D268F6E71269F4E75269C9
:105A3000F2E79269F0E7237C002B21D1A3236A4689
:105A40009B00E358901D5B6B9847B0E7237C002BCD
:105A500016D1A3236A469B00E358901D1B6B984701
:105A60000723C8E78B88002B0AD1CB88002B07D1EE
:105A70004E887F2E04D89D25AD00635D032B03D196
:105A80002000FFF750FF7DE7444BF1B2E1542000C6
:105A900000F0DEFB200000F0ABF90223002E00D165
:105AA000012363556EE789783D4D29700129E7D8B8
:105AB0009D239B00E25C022A09D0032A15D0200016
:105AC000FFF731FF29782000FFF7FBFD5AE7002997
:105AD00000D181E7012103226160E2542000FFF739
